{
  "contractName": "Polls",
  "abi": [
    {
      "inputs": [],
      "name": "count",
      "outputs": [
        {
          "internalType": "uint256",
          "name": "",
          "type": "uint256"
        }
      ],
      "stateMutability": "view",
      "type": "function",
      "constant": true
    },
    {
      "inputs": [
        {
          "internalType": "address",
          "name": "",
          "type": "address"
        }
      ],
      "name": "votes",
      "outputs": [
        {
          "internalType": "bool",
          "name": "result",
          "type": "bool"
        }
      ],
      "stateMutability": "view",
      "type": "function",
      "constant": true
    },
    {
      "inputs": [
        {
          "internalType": "bool",
          "name": "_result",
          "type": "bool"
        }
      ],
      "name": "vote",
      "outputs": [],
      "stateMutability": "nonpayable",
      "type": "function"
    },
    {
      "inputs": [],
      "name": "getVotesCount",
      "outputs": [
        {
          "internalType": "uint256",
          "name": "",
          "type": "uint256"
        }
      ],
      "stateMutability": "view",
      "type": "function",
      "constant": true
    }
  ],
  "bytecode": "0x60806040526000805534801561001457600080fd5b506103a0806100246000396000f3fe608060405234801561001057600080fd5b506004361061004c5760003560e01c806306661abd146100515780631b605b861461006f5780634b9f5c981461008d578063d8bff5a5146100a9575b600080fd5b6100596100d9565b60405161006691906101b9565b60405180910390f35b6100776100df565b60405161008491906101b9565b60405180910390f35b6100a760048036038101906100a29190610211565b6100e8565b005b6100c360048036038101906100be919061029c565b610175565b6040516100d091906102d8565b60405180910390f35b60005481565b60008054905090565b6000808154809291906100fa90610322565b91905055506040518060200160405280821515815250600160003373ffffffffffffffffffffffffffffffffffffffff1673ffffffffffffffffffffffffffffffffffffffff16815260200190815260200160002060008201518160000160006101000a81548160ff02191690831515021790555090505050565b60016020528060005260406000206000915090508060000160009054906101000a900460ff16905081565b6000819050919050565b6101b3816101a0565b82525050565b60006020820190506101ce60008301846101aa565b92915050565b600080fd5b60008115159050919050565b6101ee816101d9565b81146101f957600080fd5b50565b60008135905061020b816101e5565b92915050565b600060208284031215610227576102266101d4565b5b6000610235848285016101fc565b91505092915050565b600073ffffffffffffffffffffffffffffffffffffffff82169050919050565b60006102698261023e565b9050919050565b6102798161025e565b811461028457600080fd5b50565b60008135905061029681610270565b92915050565b6000602082840312156102b2576102b16101d4565b5b60006102c084828501610287565b91505092915050565b6102d2816101d9565b82525050565b60006020820190506102ed60008301846102c9565b92915050565b7f4e487b7100000000000000000000000000000000000000000000000000000000600052601160045260246000fd5b600061032d826101a0565b91507fffffffffffffffffffffffffffffffffffffffffffffffffffffffffffffffff820361035f5761035e6102f3565b5b60018201905091905056fea2646970667358221220744db86a2ddcf262eecc3d0ecdf875b7a4887fc46877bdbde549715a730e862264736f6c63430008110033",
  "immutableReferences": {},
  "source": "// SPDX-License-Identifier: UNLICENSED\npragma solidity ^0.8.7;\n\ncontract Polls {\n    uint public count = 0; // state variable\n\n    struct Vote {\n        bool result;\n    }\n\n    mapping(address => Vote) public votes;\n\n    function vote(bool _result) public {\n        count++;\n        votes[msg.sender] = Vote(_result);\n    }\n\n    function getVotesCount() public view returns (uint) {\n        return count;\n    }\n\n    // function getVotes() public view returns (Vote) {\n    //     return votes.length;\n    // }\n}",
  "sourcePath": "D:\\src\\Personal\\a-web3-poll\\contract\\contracts\\Polls.sol",
  "compiler": {
    "name": "solc",
    "version": "0.8.17+commit.8df45f5f.Emscripten.clang"
  },
  "schemaVersion": "3.4.10",
  "updatedAt": "2022-09-27T19:46:57.500Z",
  "networkType": "ethereum",
  "devdoc": {
    "kind": "dev",
    "methods": {},
    "version": 1
  },
  "userdoc": {
    "kind": "user",
    "methods": {},
    "version": 1
  }
}