{
  "contractName": "Polls",
  "abi": [
    {
      "inputs": [],
      "name": "voteYes",
      "outputs": [],
      "stateMutability": "nonpayable",
      "type": "function"
    },
    {
      "inputs": [],
      "name": "voteNo",
      "outputs": [],
      "stateMutability": "nonpayable",
      "type": "function"
    },
    {
      "inputs": [],
      "name": "getYesVotes",
      "outputs": [
        {
          "internalType": "uint256",
          "name": "",
          "type": "uint256"
        }
      ],
      "stateMutability": "view",
      "type": "function",
      "constant": true
    },
    {
      "inputs": [],
      "name": "getNoVotes",
      "outputs": [
        {
          "internalType": "uint256",
          "name": "",
          "type": "uint256"
        }
      ],
      "stateMutability": "view",
      "type": "function",
      "constant": true
    }
  ],
  "bytecode": "0x608060405234801561001057600080fd5b506101ee806100206000396000f3fe608060405234801561001057600080fd5b506004361061004c5760003560e01c806341c12a701461005157806390cf581c1461005b578063addace6214610065578063e5920ab514610083575b600080fd5b6100596100a1565b005b610063610106565b005b61006d61016b565b60405161007a919061019d565b60405180910390f35b61008b610177565b604051610098919061019d565b60405180910390f35b6001339080600181540180825580915050600190039060005260206000200160009091909190916101000a81548173ffffffffffffffffffffffffffffffffffffffff021916908373ffffffffffffffffffffffffffffffffffffffff160217905550565b6000339080600181540180825580915050600190039060005260206000200160009091909190916101000a81548173ffffffffffffffffffffffffffffffffffffffff021916908373ffffffffffffffffffffffffffffffffffffffff160217905550565b60008080549050905090565b6000600180549050905090565b6000819050919050565b61019781610184565b82525050565b60006020820190506101b2600083018461018e565b9291505056fea264697066735822122024556b3bfbf9c6ca9089afcd6f861f96bacb4eb12c0ad4ed3da89a5bb7cade9364736f6c63430008110033",
  "immutableReferences": {},
  "source": "// SPDX-License-Identifier: UNLICENSED\npragma solidity ^0.8.7;\n\ncontract Polls {\n    // store the addresses of voters on the blockchain in these 2 arrays\n    address[] votedYes;\n    address[] votedNo;\n\n    function voteYes() public {\n        votedYes.push(msg.sender);\n    }\n\n    function voteNo() public {\n        votedNo.push(msg.sender);\n    }\n\n    function getYesVotes() public view returns (uint) {\n        return votedYes.length;\n    }\n\n    function getNoVotes() public view returns (uint) {\n        return votedNo.length;\n    }\n}",
  "sourcePath": "D:\\src\\Personal\\a-web3-poll\\contract\\contracts\\Polls.sol",
  "compiler": {
    "name": "solc",
    "version": "0.8.17+commit.8df45f5f.Emscripten.clang"
  },
  "schemaVersion": "3.4.10",
  "updatedAt": "2022-09-26T14:27:34.220Z",
  "networkType": "ethereum",
  "devdoc": {
    "kind": "dev",
    "methods": {},
    "version": 1
  },
  "userdoc": {
    "kind": "user",
    "methods": {},
    "version": 1
  }
}